:020000040800F2
:100000000000022031160008D5120008DB1200089B
:10001000E1120008E7120008ED12000800000000DD
:10002000000000000000000000000000F3120008C3
:1000300001130008000000000F1300081D13000842
:100040008116000881160008811600088116000834
:100050008116000881160008811600088116000824
:100060008116000881160008811600088116000814
:100070008116000881160008811600088116000804
:1000800081160008811600088116000881160008F4
:1000900081160008811600088116000881160008E4
:1000A00081160008811600088116000881160008D4
:1000B000291300088116000881160008811600081F
:1000C00081160008811600088116000881160008B4
:1000D00081160008811600083D130008511300081E
:1000E0008116000881160008811600088116000894
:1000F0008116000881160008811600088116000884
:100100008116000881160008811600088116000873
:100110008116000881160008811600088116000863
:100120008116000881160008811600088116000853
:100130008116000881160008811600088116000843
:100140008116000881160008811600088116000833
:100150008116000881160008811600088116000823
:100160008116000881160008811600088116000813
:1001700081160008811600088116000800000000A2
:08018000811600088116000839
:1001880010B5054C237833B9044B13B10448AFF3C9
:1001980000800123237010BD0C0000200000000027
:1001A8001440000808B5034B1BB103490348AFF3DB
:1001B800008008BD00000000100000201440000866
:1001C80053B94AB9002908BF00281CBF4FF0FF31B6
:1001D8004FF0FF3000F06EB9ADF1080C6DE904CEB8
:1001E80000F006F8DDF804E0DDE9022304B070470A
:1001F8002DE9F047089D04468C46002B40F083808B
:100208008A42174647D9B2FA82F242B1C2F12000B7
:1002180024FA00F09140974040EA010C94404FEADC
:100228001748230CBCFBF8F61FFA87FE08FB16C11B
:1002380043EA014306FB0EF1994209D9FB1806F17E
:10024800FF3080F01981994240F21681023E3B440A
:100258005B1AA4B2B3FBF8F008FB103344EA03447A
:1002680000FB0EFEA64509D93C1900F1FF3380F0CA
:100278000581A64540F2028102383C4440EA064026
:10028800A4EB0E0400261DB1D4400023C5E90043A9
:100298003146BDE8F08702B9FFDEB2FA82F2002AE1
:1002A80050D1CB1B4FEA174E1FFA87F80126B3FB34
:1002B800FEFC210C0EFB1C3341EA034108FB0CF346
:1002C8008B4207D979180CF1FF3002D28B4200F229
:1002D800E9808446C91AA3B2B1FBFEF00EFB1011E7
:1002E80043EA014408FB00F8A04507D93C1900F18E
:1002F800FF3302D2A04500F2D9801846A4EB0804C7
:1003080040EA0C40BFE78B4209D9002D00F0B180CC
:100318000026C5E9000130463146BDE8F087B3FA4A
:1003280083F6002E4AD18B4202D3824200F2B88073
:10033800841A61EB030101208C46002DA8D0C5E981
:10034800004CA5E7C2F1200320FA03F6974001FA12
:1003580002F04FEA174ED9403043030CB1FBFEF6CA
:100368001FFA87F80EFB161143EA014306FB08F152
:10037800994204FA02F409D9FB1806F1FF3C80F00F
:100388008D80994240F28A80023E3B445B1A81B2DA
:10039800B3FBFEF00EFB103341EA034100FB08F308
:1003A8008B4207D9791800F1FF3C73D28B4271D97F
:1003B80002383944CB1A40EA064678E7C6F1200CE1
:1003C80003FA06F422FA0CF31C4320FA0CF701FA9C
:1003D80006F34FEA144E21FA0CF11F433B0CB1FB14
:1003E800FEF91FFA84F80EFB191143EA014109FBD3
:1003F80008FA8A4502FA06F200FA06F308D96118E3
:1004080009F1FF3048D28A4546D9A9F102092144A9
:10041800A1EB0A01BFB2B1FBFEF00EFB101147EAD7
:10042800014700FB08F8B84507D9E71900F1FF3183
:100438002ED2B8452CD90238274440EA0940A7EB08
:100448000807A0FB02894F45C64649461AD317D06C
:100458005DB1B3EB0E0267EB010707FA0CFCF24043
:100468004CEA0202F740C5E9002700263146BDE8FC
:10047800F0872E4628460BE70646E9E61846FDE6CD
:100488004345E5D2B8EB020E69EB04010138DFE71A
:100498000846D2E760468DE78146B9E7664675E7C4
:1004A80030464AE7ACF1020C394413E702383C44C1
:1004B80024E700BF704700BF80B58EB000AF07F1DA
:1004C8001C0300221A605A609A60DA601A615A6145
:1004D8009A613B4600221A605A609A60DA601A6193
:1004E8005A619A612F4B4FF020421A602D4B2E4AC9
:1004F8005A602C4B00229A602A4B0022DA60294B62
:1005080000221A61274B10225A61264B00229A6159
:10051800244B0022DA61234B00221A62214B00226D
:100528005A62204B4FF480529A621E4B0022DA62C4
:100538001C4B4FF480421A631A4B00225A63194B22
:1005480000229A63174B00225A640F23FB610F2382
:100558003B623C237B620023BB621023FB621123B6
:100568003B6300237B6308233B600F237B600923E5
:10057800BB600023FB6010233B6111237B610023D8
:10058800BB613A4607F11C031946064802F07BF99D
:100598000346002B01D000F0EDFD00BF3837BD4603
:1005A80080BD00BF2C000020040100A080B586B0EB
:1005B80000AF3B1D00221A605A609A60DA601A6127
:1005C8001C4B1B68002B31D11A4B01221A600023E7
:1005D8003B60194B9B6B184A43F001039363164B1E
:1005E8009B6B03F001033B603B684FF688737B60AD
:1005F8000223BB600023FB6003233B610C237B6168
:100608003B1D19460D4801F073FA4CF2B3737B6039
:100618000223BB600023FB6003233B610C237B6147
:100628003B1D1946064801F063FA00E000BF183781
:10063800BD4680BD2800002000380240001002405E
:10064800000C024080B582B000AF7860FFF7AEFFC3
:1006580000BF0837BD4680BD80B58EB000AF07F13A
:10066800240300221A605A609A60DA601A61002333
:100678003B628D4B1B6B8C4A43F0100313638A4B10
:100688001B6B03F010033B623B6A0023FB61864B44
:100698001B6B854A43F004031363834B1B6B03F006
:1006A8000403FB61FB690023BB617F4B1B6B7E4A24
:1006B80043F0200313637C4B1B6B03F02003BB61E7
:1006C800BB6900237B61784B1B6B774A43F080033F
:1006D8001363754B1B6B03F080037B617B690023FD
:1006E8003B61714B1B6B704A43F0010313636E4B04
:1006F8001B6B03F001033B613B690023FB606A4B02
:100708001B6B694A43F008031363674B1B6B03F0C9
:100718000803FB60FB680023BB60634B1B6B624AEA
:1007280043F040031363604B1B6B03F04003BB6053
:10073800BB6800237B605C4B1B6B5B4A43F0020386
:100748001363594B1B6B03F002037B607B68002229
:100758007021564801F080FB00224FF400515448A4
:1007680001F07AFB00224FF48061524801F074FBDB
:1007780000224021504801F06FFB00224FF4014154
:100788004E4801F069FB002208214D4801F064FB46
:1007980070237B620123BB620023FB6200233B635F
:1007A80007F124031946414801F0A2F94FF4005318
:1007B8007B620123BB620023FB6200233B6307F1DA
:1007C800240319463A4801F093F94FF400737B6209
:1007D8000023BB620023FB6207F124031946354856
:1007E80001F086F94FF480637B620123BB6200232A
:1007F800FB6200233B6307F1240319462D4801F0EF
:1008080077F920237B620023BB620223FB6207F196
:1008180024031946294801F06BF9C0237B620023A1
:10082800BB620023FB6207F124031946234801F049
:100838005FF930237B620023BB620023FB6207F170
:10084800240319461A4801F053F940237B62012317
:10085800BB620023FB6200233B6307F124031946B4
:10086800154801F045F94FF401437B620123BB624F
:100878000023FB6200233B6307F1240319460F485A
:1008880001F036F908237B620123BB620023FB6277
:1008980000233B6307F124031946094801F028F9AE
:1008A80000BF3837BD4680BD003802400010024006
:1008B80000080240001402400018024000000240F4
:1008C800000C024080B483B000AF0346FB80044AAA
:1008D800FB88138000BF0C37BD465DF8047B70476A
:1008E800FEFF0F6080B483B000AF0346FB80044A6C
:1008F800FB88538000BF0C37BD465DF8047B70470A
:10090800FEFF0F6080B483B000AF064B5B889BB2DC
:10091800FB80FB889BB218460C37BD465DF8047B0C
:10092800704700BFFEFF0F6090B583B000AF04466C
:10093800084611461A462346FB800346BB800B46F1
:100948007B8013463B802A20FFF7BCFFFB881B0AED
:100958009BB21846FFF7C6FFFB88DBB29BB218466E
:10096800FFF7C0FF7B881B0A9BB21846FFF7BAFF48
:100978007B88DBB29BB21846FFF7B4FF2B20FFF74A
:10098800A1FFBB881B0A9BB21846FFF7ABFFBB88C9
:10099800DBB29BB21846FFF7A5FF3B881B0A9BB248
:1009A8001846FFF79FFF3B88DBB29BB21846FFF75C
:1009B80099FF2C20FFF786FF00BF0C37BD4690BD7E
:1009C80080B582B000AF0346FB800B46BB80134660
:1009D8007B80BB88FA88B988F888FFF7A5FF7B88F1
:1009E8001846FFF77FFF00BF0837BD4680BD0000EF
:1009F80090B587B000AF0446084611461A4623460C
:100A0800FB800346BB800B46FB7013463B800023EC
:100A18007B75FB883B8297F82C305B08FB73FB7B6C
:100A2800DB08DBB21A46FB7B03F00703DBB2002BC3
:100A380014BF01230023DBB213449AB297F82C3079
:100A48009BB212FB03F3BB81FB78203BFB70FB7B63
:100A58009AB2FB8813449BB2013B9CB297F82C30A6
:100A68009AB2BB8813449BB2013B9BB2B988F88801
:100A78002246FFF759FF00237B827AE097F82C3053
:100A88000C2B28D097F82C30102B08D1FA787B8AB9
:100A98003C4912010A4413441B78FB751BE097F884
:100AA8002C30182B0BD1FA78798A374813465B001B
:100AB80013441B0103440B441B78FB750BE097F8A8
:100AC8002C30202B5AD1FA787B8A304992010A447B
:100AD80013441B78FB750023BB7544E097F830304E
:100AE800002B20D1FA7DBB7D42FA03F303F001030A
:100AF800002B04D03B881846FFF7F4FE03E03B8D3B
:100B08001846FFF7EFFE7B7D01337B757B7DFA7B13
:100B1800B3FBF2F102FB01F29B1ADBB2002B1FD1EF
:100B280000237B7522E0FA7DBB7D42FA03F303F0D4
:100B38000103002B05D03A88B988FB881846FFF7CF
:100B48003FFFFB880133FB80FA883B8AD21AFB7B84
:100B58009A4205D13B8AFB80BB880133BB8005E004
:100B6800BB7D0133BB75BB7D072BB7D97B8A0133AE
:100B78007B827A8ABB899A4280D300E000BF1C3707
:100B8800BD4690BD4C4000083C4600080C58000883
:100B980080B485B000AF03460A46FB711346BB71AB
:100BA8000123FB6004E0FA79FB6802FB03F3FB60B6
:100BB800BB795A1EBA71002BF5D1FB681846143759
:100BC800BD465DF8047B704790B589B004AF044614
:100BD800084611461A462346FB800346BB800B464F
:100BE8007B8013467B700023BB7397F828305B0823
:100BF8007B730023FB7359E07C887A78FB7BD31ADC
:100C0800DBB2013BDBB219460A20FFF7C1FF0346FE
:100C1800B4FBF3F12A4BA3FB0123DA0813469B002C
:100C280013445B00CA1A13463B73BB7B002B21D1CC
:100C3800FA7B7B78013B9A421CDA3B7B002B17D16D
:100C4800FB7B9AB27B7B9BB212FB03F39AB2FB88C5
:100C5800134498B23A8CB9880023029397F8283045
:100C68000193BB8C009313462022FFF7C1FE1AE0C4
:100C78000123BB73FB7B9AB27B7B9BB212FB03F312
:100C88009AB2FB88134498B23B7B3033DAB23C8C7F
:100C9800B9880023029397F828300193BB8C0093FE
:100CA8002346FFF7A5FEFB7B0133FB73FA7B7B78BA
:100CB8009A42A1D300BF00BF1437BD4690BD00BF04
:100CC800CDCCCCCC80B483B000AF0346FB71FB79AC
:100CD8001B09DBB203F00303DBB2002B07D00A4B7E
:100CE8004FF4A0721A80084BF0225A8006E0064B97
:100CF800F0221A80044B4FF4A0725A8000BF0C37C0
:100D0800BD465DF8047B70477C00002080B500AFCD
:100D180000224FF40051AA4801F09EF84FF4FA70EF
:100D280000F01EFD01224FF40051A54801F094F88F
:100D38004FF4FA7000F014FD0020FFF7C3FFD32032
:100D4800FFF7C0FDFFF7DEFD03461A469D4B9A806C
:100D5800FFF7D8FD03461A469A4B9A80FFF7D2FD53
:100D680003461A46974B9A80964B9B881B029AB269
:100D7800944B9A80FFF7C6FD03461A46914B9B8811
:100D880013439AB28F4B9A80CF20FFF79BFD002028
:100D9800FFF7A8FDC120FFF7A5FD3020FFF7A2FD52
:100DA800ED20FFF78FFD6420FFF79CFD0320FFF780
:100DB80099FD1220FFF796FD8120FFF793FDE820AB
:100DC800FFF780FD8520FFF78DFD1020FFF78AFDD6
:100DD8007A20FFF787FDCB20FFF774FD3920FFF756
:100DE80081FD2C20FFF77EFD0020FFF77BFD3420DE
:100DF800FFF778FD0220FFF775FDF720FFF762FD8A
:100E08002020FFF76FFDEA20FFF75CFD0020FFF7C9
:100E180069FD0020FFF766FDC020FFF753FD1B208A
:100E2800FFF760FDC120FFF74DFD0120FFF75AFDD8
:100E3800C520FFF747FD3020FFF754FD3020FFF7AE
:100E480051FDC720FFF73EFDB720FFF74BFD3620C9
:100E5800FFF738FD0820FFF745FD3A20FFF732FD80
:100E68005520FFF73FFDB120FFF72CFD0020FFF7CD
:100E780039FD1A20FFF736FDB620FFF723FD0A20BB
:100E8800FFF730FDA220FFF72DFDF220FFF71AFD36
:100E98000020FFF727FD2620FFF714FD0120FFF7AC
:100EA80021FDE020FFF70EFD0F20FFF71BFD2A2094
:100EB800FFF718FD2820FFF715FD0820FFF712FDA2
:100EC8000E20FFF70FFD0820FFF70CFD5420FFF759
:100ED80009FDA920FFF706FD4320FFF703FD0A20BF
:100EE800FFF700FD0F20FFF7FDFC0020FFF7FAFCDD
:100EF8000020FFF7F7FC0020FFF7F4FC0020FFF7C5
:100F0800F1FCE120FFF7DEFC0020FFF7EBFC1520E9
:100F1800FFF7E8FC1720FFF7E5FC0720FFF7E2FCE6
:100F28001120FFF7DFFC0620FFF7DCFC2B20FFF782
:100F3800D9FC5620FFF7D6FC3C20FFF7D3FC052050
:100F4800FFF7D0FC1020FFF7CDFC0F20FFF7CAFCFD
:100F58003F20FFF7C7FC3F20FFF7C4FC0F20FFF737
:100F6800C1FC2B20FFF7AEFC0020FFF7BBFC0020E4
:100F7800FFF7B8FC0120FFF7B5FC3F20FFF7B2FCF4
:100F88002A20FFF79FFC0020FFF7ACFC0020FFF7AA
:100F9800A9FC0020FFF7A6FCEF20FFF7A3FC112017
:100FA800FFF790FC782000F0DBFB2920FFF78AFC94
:100FB80001224FF48071044800F04EFF00BF80BD4D
:100FC800000802407C00002000000240B0B590B04C
:100FD80004AF00F053FB00F063F8FFF73DFB00F0AF
:100FE800CFF900F0CDF8FFF767FA00F065FA00F0E6
:100FF80039FAFFF78BFE284B3C1D1D460FCD0FC459
:1010080095E80F0084E80F003223FB6264237B62BB
:101018002021224800F008FF0346002BF4D140F2BB
:10102800DC5000F09DFB0723BB622CE020211B480D
:1010380000F0FAFE03461A46BB6A9B0007F130012E
:101048000B4443F82C2CFB6A98B27B6A99B2BB6AB2
:101058009B0007F13002134453F82C3C9AB2182332
:101068000293002301934FF4FC6300930123FFF7DD
:10107800ABFDFB6A1433FB624FF47A7000F070FB2F
:10108800BB6A013BBB62BB6A002BCFDA2021034855
:1010980000F0CAFEB8E700BF2C400008000002407C
:1010A80080B594B000AF07F1200330220021184624
:1010B80002F0A4FF07F10C0300221A605A609A603C
:1010C800DA601A610023BB60284B1B6C274A43F087
:1010D80080531364254B1B6C03F08053BB60BB68C3
:1010E80000237B60224B1B68214A43F48043136032
:1010F8001F4B1B6803F480437B607B6802233B62C1
:101108000123FB6210233B630223BB630023FB63C1
:1011180008233B64A8237B640223BB640423FB6489
:1011280007F12003184600F0B1FE0346002B01D05A
:1011380000F020F80F23FB6002233B6100237B6152
:101148004FF4A053BB614FF4A053FB6107F10C03AC
:101158000521184601F012F90346002B01D000F0D2
:1011680009F800BF5037BD4680BD00BF00380240B7
:101178000070004080B400AF72B600BFFEE7000008
:1011880080B500AF174B184A1A60164B4FF482729D
:101198005A60144B00229A60124B0022DA60114BFD
:1011A80000221A610F4B00225A610E4B4FF4007255
:1011B8009A610C4B0022DA610A4B00221A62094B31
:1011C80000225A62074B00229A62064B0A22DA6210
:1011D800044801F0CFFA0346002B01D0FFF7CAFFFD
:1011E80000BF80BDB80000200030014080B58AB043
:1011F80000AF786007F1140300221A605A609A6001
:10120800DA601A617B681B68194A93422BD1002364
:101218003B61184B5B6C174A43F480535364154B7E
:101228005B6C03F480533B613B690023FB60114B0B
:101238001B6B104A43F0020313630E4B1B6B03F046
:101248000203FB60FB6838237B610223BB61002338
:10125800FB6103233B6205237B6207F114031946F4
:10126800054800F045FC00BF2837BD4680BD00BFDB
:1012780000300140003802400004024080B483B0CE
:1012880000AF00237B60104B5B6C0F4A43F4804334
:1012980053640D4B5B6C03F480437B607B680023D5
:1012A8003B60094B1B6C084A43F080531364064BA0
:1012B8001B6C03F080533B603B6800BF0C37BD4696
:1012C8005DF8047B704700BF0038024080B400AF6F
:1012D800FEE780B400AFFEE780B400AFFEE780B45D
:1012E80000AFFEE780B400AFFEE780B400AF00BFF8
:1012F800BD465DF8047B704780B400AF00BFBD46B3
:101308005DF8047B704780B400AF00BFBD465DF850
:10131800047B704780B500AF00F002FA00BF80BDC3
:1013280080B500AF024801F041FB00BF80BD00BF9F
:101338001001002080B500AF024801F051FF00BF46
:1013480080BD00BF9C01002080B500AF024801F0BD
:1013580047FF00BF80BD00BF5801002080B400AF28
:10136800064BD3F88830054A43F47003C2F8883036
:1013780000BFBD465DF8047B704700BF00ED00E08C
:1013880080B586B000AF07F1080300221A605A60E2
:101398009A60DA603B4600221A605A601D4B4FF093
:1013A80080421A601B4B40F247325A60194B0022A8
:1013B8009A60184B6322DA60164B00221A61154BAB
:1013C80000229A61134801F0A2FA0346002B01D0CB
:1013D800FFF7D0FE4FF48053BB6007F108031946AE
:1013E8000C4801F0EBFB0346002B01D0FFF7C2FECF
:1013F80000233B6000237B603B461946054801F00B
:1014080011FE0346002B01D0FFF7B4FE00BF1837CA
:10141800BD4680BD1001002080B584B000AF786063
:101428007B681B68B3F1804F15D10023FB600C4B20
:101438001B6C0B4A43F001031364094B1B6C03F04C
:101448000103FB60FB68002200211C2000F087FAE2
:101458001C2000F0A0FA00BF1037BD4680BD00BFB9
:101468000038024080B500AF114B124A1A60104B89
:101478004FF4E1325A600E4B00229A600C4B002266
:10148800DA600B4B00221A61094B0C225A61084B97
:1014980000229A61064B0022DA61054801F052FEEB
:1014A8000346002B01D0FFF765FE00BF80BD00BFDB
:1014B8009C0100200044004080B500AF114B124A47
:1014C8001A60104B4FF416525A600E4B00229A6065
:1014D8000C4B0022DA600B4B00221A61094B0C22DC
:1014E8005A61084B00229A61064B0022DA610548CE
:1014F80001F028FE0346002B01D0FFF73BFE00BF9A
:1015080080BD00BF580100200048004080B58CB065
:1015180000AF786007F11C0300221A605A609A60D5
:10152800DA601A617B681B683A4A934234D1002317
:10153800BB61394B1B6C384A43F400331364364B98
:101548001B6C03F40033BB61BB6900237B61324B26
:101558001B6B314A43F0010313632F4B1B6B03F0E2
:1015680001037B617B690C23FB6102233B6200233F
:101578007B620323BB620723FB6207F11C03194646
:10158800264800F0B5FA00220021262000F0E7F9ED
:10159800262000F000FA39E07B681B68204A934255
:1015A80034D100233B611C4B1B6C1B4A43F4802342
:1015B8001364194B1B6C03F480233B613B690023C4
:1015C800FB60154B1B6B144A43F004031363124B67
:1015D8001B6B03F00403FB60FB684FF44063FB6183
:1015E80002233B6200237B620323BB620723FB6267
:1015F80007F11C0319460B4800F07AFA0022012172
:10160800272000F0ACF9272000F0C5F900BF3037DB
:10161800BD4680BD00440040003802400000024042
:101628000048004000080240DFF834D00D480E4959
:101638000E4A002302E0D458C4500433C4188C4224
:10164800F9D30B4A0B4C002301E013600432A24289
:10165800FBD3FFF783FE02F0ADFCFFF7B7FC704742
:1016680000000220000000200C000020F46F000899
:101678000C000020E4010020FEE7000080B500AF68
:101688000E4B1B680D4A43F4007313600B4B1B6829
:101698000A4A43F480631360084B1B68074A43F403
:1016A80080731360032000F04FF90F2000F008F852
:1016B800FFF7E4FD0023184680BD00BF003C024050
:1016C80080B582B000AF7860124B1A68124B1B7855
:1016D80019464FF47A73B3FBF1F3B2FBF3F31846F0
:1016E80000F067F90346002B01D001230EE07B6868
:1016F8000F2B0AD8002279684FF0FF3000F02FF93D
:10170800064A7B681360002300E001231846083767
:10171800BD4680BD00000020080000200400002015
:1017280080B400AF064B1B781A46064B1B6813445F
:10173800044A136000BFBD465DF8047B704700BFD4
:1017480008000020E001002080B400AF034B1B68B4
:101758001846BD465DF8047B704700BFE0010020D5
:1017680080B584B000AF7860FFF7EEFFB8607B68A3
:10177800FB60FB68B3F1FF3F05D00A4B1B781A46A4
:10178800FB681344FB6000BFFFF7DEFF0246BB683F
:10179800D31AFA689A42F7D800BF00BF1037BD467F
:1017A80080BD00BF0800002080B485B000AF78601D
:1017B8007B6803F00703FB600C4BDB68BB60BA680F
:1017C8004FF6FF031340BB60FB681A02BB68134364
:1017D80043F0BF6343F40033BB60044ABB68D36083
:1017E80000BF1437BD465DF8047B704700ED00E08C
:1017F80080B400AF044BDB681B0A03F007031846EC
:10180800BD465DF8047B704700ED00E080B483B00E
:1018180000AF0346FB7197F90730002B0BDBFB7910
:1018280003F01F02074997F907305B09012000FA06
:1018380002F241F8232000BF0C37BD465DF8047B57
:10184800704700BF00E100E080B483B000AF0346FA
:101858003960FB7197F90730002B0ADB3B68DAB275
:101868000C4997F907301201D2B20B4483F80023D0
:101878000AE03B68DAB20849FB7903F00F03043B3E
:101888001201D2B20B441A7600BF0C37BD465DF880
:10189800047B704700E100E000ED00E080B489B00F
:1018A80000AFF860B9607A60FB6803F00703FB617A
:1018B800FB69C3F10703042B28BF0423BB61FB6941
:1018C8000433062B02D9FB69033B00E000237B614C
:1018D8004FF0FF32BB6902FA03F3DA43BB681A40E0
:1018E8007B699A404FF0FF317B6901FA03F3D943D2
:1018F8007B680B40134318462437BD465DF8047BCC
:101908007047000080B582B000AF78607B68013B0B
:10191800B3F1807F01D301230FE00A4A7B68013BC2
:1019280053600F214FF0FF30FFF78EFF054B002269
:101938009A60044B07221A60002318460837BD46F0
:1019480080BD00BF10E000E080B582B000AF7860D5
:101958007868FFF729FF00BF0837BD4680BD80B50E
:1019680086B000AF0346B9607A60FB7300237B61E1
:10197800FFF73EFF78617A68B9687869FFF78EFFEC
:10198800024697F90F3011461846FFF75DFF00BF72
:101998001837BD4680BD80B582B000AF0346FB71E5
:1019A80097F907301846FFF731FF00BF0837BD46E3
:1019B80080BD80B582B000AF78607868FFF7A2FF7D
:1019C800034618460837BD4680BD80B584B000AFD1
:1019D80078607B689B6DFB60FFF7B6FEB8607B683C
:1019E80093F83530DBB2022B08D07B6880225A6529
:1019F8007B68002283F83420012352E07B681B684F
:101A08001A687B681B6822F016021A607B681B68DC
:101A18005A697B681B6822F080025A617B681B6CDC
:101A2800002B03D17B689B6C002B07D07B681B685D
:101A38001A687B681B6822F008021A607B681B68BA
:101A48001A687B681B6822F001021A6013E0FFF72E
:101A58007BFE0246BB68D31A052B0CD97B68202273
:101A68005A657B68032283F835207B68002283F857
:101A78003420032315E07B681B681B6803F001030F
:101A8800002BE4D17B68DB6D3F229A40FB689A60AB
:101A98007B68012283F835207B68002283F8342094
:101AA800002318461037BD4680BD80B483B000AF10
:101AB80078607B6893F83530DBB2022B04D07B6802
:101AC80080225A6501230CE07B68052283F83520C3
:101AD8007B681B681A687B681B6822F001021A6021
:101AE800002318460C37BD465DF8047B704700009C
:101AF80080B489B000AF7860396000237B6100232F
:101B08003B610023BB610023FB616BE10122FB69A0
:101B180002FA03F37B613B681B687A6913403B61F7
:101B28003A697B699A4240F05A813B685B6803F0E6
:101B38000303012B05D03B685B6803F00303022B0A
:101B480030D17B689B68BB61FB695B00032202FAAA
:101B580003F3DB43BA691340BB613B68DA68FB698E
:101B68005B0002FA03F3BA691343BB617B68BA6985
:101B78009A607B685B68BB610122FB6902FA03F328
:101B8800DB43BA691340BB613B685B681B0903F020
:101B98000102FB6902FA03F3BA691343BB617B686C
:101BA800BA695A603B685B6803F00303032B17D0DC
:101BB8007B68DB68BB61FB695B00032202FA03F305
:101BC800DB43BA691340BB613B689A68FB695B00F9
:101BD80002FA03F3BA691343BB617B68BA69DA6036
:101BE8003B685B6803F00303022B23D1FB69DA0827
:101BF8007B68083253F82230BB61FB6903F00703A6
:101C08009B000F2202FA03F3DB43BA691340BB615E
:101C18003B681A69FB6903F007039B0002FA03F3A8
:101C2800BA691343BB61FB69DA087B680832B96992
:101C380043F822107B681B68BB61FB695B000322C9
:101C480002FA03F3DB43BA691340BB613B685B6884
:101C580003F00302FB695B0002FA03F3BA6913435A
:101C6800BB617B68BA691A603B685B6803F4403300
:101C7800002B00F0B4800023FB60604B5B6C5F4A74
:101C880043F4804353645D4B5B6C03F48043FB6017
:101C9800FB685B4AFB699B08023352F82330BB613F
:101CA800FB6903F003039B000F2202FA03F3DB43F3
:101CB800BA691340BB617B68524A93422BD07B6858
:101CC800514A934225D07B68504A93421FD07B6883
:101CD8004F4A934219D07B684E4A934213D07B688F
:101CE8004D4A93420DD07B684C4A934207D07B689B
:101CF8004B4A934201D107230EE008230CE0062348
:101D08000AE0052308E0042306E0032304E0022395
:101D180002E0012300E00023FA6902F003029200C6
:101D28009340BA691343BB613549FB699B08023389
:101D3800BA6941F823203B4B1B68BB613B69DB4315
:101D4800BA691340BB613B685B6803F48033002BBE
:101D580003D0BA693B691343BB61324ABB6913605C
:101D6800304B5B68BB613B69DB43BA691340BB61BD
:101D78003B685B6803F40033002B03D0BA693B6906
:101D88001343BB61274ABB695360264B9B68BB6101
:101D98003B69DB43BA691340BB613B685B6803F48A
:101DA8008013002B03D0BA693B691343BB611D4AFA
:101DB800BB6993601B4BDB68BB613B69DB43BA695A
:101DC8001340BB613B685B6803F40013002B03D02E
:101DD800BA693B691343BB61124ABB69D360FB69AB
:101DE8000133FB61FB690F2B7FF690AE00BF00BF8C
:101DF8002437BD465DF8047B704700BF00380240B9
:101E0800003801400000024000040240000802407F
:101E1800000C02400010024000140240001802406A
:101E2800001C0240003C014080B485B000AF7860DF
:101E38000B467B807B681A697B881340002B02D095
:101E48000123FB7301E00023FB73FB7B1846143767
:101E5800BD465DF8047B704780B483B000AF7860FE
:101E68000B467B8013467B707B78002B03D07A88E7
:101E78007B689A6103E07B881A047B689A6100BFDB
:101E88000C37BD465DF8047B7047000080B586B00E
:101E980000AF78607B68002B01D1012364E27B6886
:101EA8001B6803F00103002B75D0A34B9B6803F05C
:101EB8000C03042B0CD0A04B9B6803F00C03082BDD
:101EC80012D19D4B5B6803F48003B3F5800F0BD1EF
:101ED800994B1B6803F40033002B5BD07B685B686D
:101EE800002B57D101233FE27B685B68B3F5803F45
:101EF80006D1914B1B68904A43F4803313601DE070
:101F08007B685B68B3F5A02F0CD18B4B1B688A4AA2
:101F180043F480231360884B1B68874A43F480335B
:101F280013600BE0844B1B68834A23F480331360EF
:101F3800814B1B68804A23F4802313607B685B68AD
:101F4800002B13D0FFF700FC386108E0FFF7FCFB1B
:101F580002463B69D31A642B01D9032304E2764B6A
:101F68001B6803F40033002BF0D014E0FFF7ECFB00
:101F7800386108E0FFF7E8FB02463B69D31A642B97
:101F880001D90323F0E16C4B1B6803F40033002BE9
:101F9800F0D100E000BF7B681B6803F00203002B50
:101FA80063D0654B9B6803F00C03002B0BD0624B8E
:101FB8009B6803F00C03082B1CD15F4B5B6803F490
:101FC8008003002B16D15C4B1B6803F00203002B27
:101FD80005D07B68DB68012B01D00123C4E1564B97
:101FE8001B6823F0F8027B681B69DB005249134326
:101FF8000B603AE07B68DB68002B20D04F4B012256
:102008001A60FFF7A1FB386108E0FFF79DFB024665
:102018003B69D31A022B01D90323A5E1464B1B6860
:1020280003F00203002BF0D0434B1B6823F0F802A7
:102038007B681B69DB00404913430B6015E03F4B8D
:1020480000221A60FFF780FB386108E0FFF77CFB8D
:1020580002463B69D31A022B01D9032384E1364B8C
:102068001B6803F00203002BF0D17B681B6803F0A8
:102078000803002B30D07B685B69002B16D0304BEF
:1020880001221A60FFF760FB386108E0FFF75CFB8C
:1020980002463B69D31A022B01D9032364E1264B7C
:1020A8005B6F03F00203002BF0D015E0244B0022F5
:1020B8001A60FFF749FB386108E0FFF745FB024665
:1020C8003B69D31A022B01D903234DE11A4B5B6FED
:1020D80003F00203002BF0D17B681B6803F00403B4
:1020E800002B00F0A0800023FB75134B1B6C03F042
:1020F8008053002B0FD10023BB600F4B1B6C0E4A83
:1021080043F0805313640C4B1B6C03F08053BB608B
:10211800BB680123FB750B4B1B6803F48073002B12
:1021280021D1084B1B68074A43F480731360FFF7FB
:102138000BFB386111E000BF003802400000474245
:10214800800E474200700040FFF7FEFA02463B69E6
:10215800D31A022B01D9032306E1854B1B6803F42C
:102168008073002BF0D07B689B68012B06D1814BD4
:102178001B6F804A43F0010313671CE07B689B6870
:10218800052B0CD17B4B1B6F7A4A43F00403136772
:10219800784B1B6F774A43F0010313670BE0754BCD
:1021A8001B6F744A23F001031367724B1B6F714A4C
:1021B80023F0040313677B689B68002B15D0FFF797
:1021C800C3FA38610AE0FFF7BFFA02463B69D31A3F
:1021D80041F28832934201D90323C5E0654B1B6F56
:1021E80003F00203002BEED014E0FFF7ADFA3861DC
:1021F8000AE0FFF7A9FA02463B69D31A41F288328E
:10220800934201D90323AFE05A4B1B6F03F002033B
:10221800002BEED1FB7D012B05D1564B1B6C554A8B
:1022280023F0805313647B689B69002B00F09B802C
:10223800504B9B6803F00C03082B5CD07B689B69B0
:10224800022B41D14C4B00221A60FFF77DFA38610E
:1022580008E0FFF779FA02463B69D31A022B01D945
:10226800032381E0434B1B6803F00073002BF0D17C
:102278007B68DA697B681B6A1A437B685B6A9B0127
:102288001A437B689B6A5B08013B1B041A437B6803
:10229800DB6A1B06374913434B60374B01221A6030
:1022A800FFF752FA386108E0FFF74EFA02463B6939
:1022B800D31A022B01D9032356E02E4B1B6803F0D7
:1022C8000073002BF0D04EE02B4B00221A60FFF772
:1022D8003BFA386108E0FFF737FA02463B69D31A40
:1022E800022B01D903233FE0224B1B6803F0007344
:1022F800002BF0D137E07B689B69012B01D10123CA
:1023080032E01C4B5B68FB607B689B69012B28D023
:10231800FB6803F480027B68DB699A4221D1FB6881
:1023280003F03F027B681B6A9A421AD1FA6847F6A3
:10233800C07313407A68526A9201934211D1FB68C4
:1023480003F440327B689B6A5B08013B1B049A429A
:1023580007D1FB6803F070627B68DB6A1B069A4250
:1023680001D0012300E0002318461837BD4680BD80
:1023780000700040003802406000474280B584B0D9
:1023880000AF786039607B68002B01D10123CCE075
:10239800684B1B6803F007033A689A420CD9654BEF
:1023A8003A68D2B21A70634B1B6803F007033A68A5
:1023B8009A4201D00123B8E07B681B6803F002034E
:1023C800002B20D07B681B6803F00403002B05D08A
:1023D800594B9B68584A43F4E05393607B681B68E9
:1023E80003F00803002B05D0534B9B68524A43F473
:1023F80060439360504B9B6823F0F0027B689B68B6
:102408004D4913438B607B681B6803F00103002B65
:1024180044D07B685B68012B07D1474B1B6803F4EA
:102428000033002B19D101237FE07B685B68022B06
:1024380003D07B685B68032B07D13F4B1B6803F015
:102448000073002B09D101236FE03B4B1B6803F09D
:102458000203002B01D1012367E0374B9B6823F06F
:1024680003027B685B68344913438B60FFF76CF9A0
:10247800F8600AE0FFF768F90246FB68D31A41F2F0
:102488008832934201D903234FE02B4B9B6803F01A
:102498000C027B685B689B009A42EBD1254B1B685A
:1024A80003F007033A689A420CD2224B3A68D2B238
:1024B8001A70204B1B6803F007033A689A4201D050
:1024C800012332E07B681B6803F00403002B08D06B
:1024D800194B9B6823F4E0527B68DB681649134369
:1024E8008B607B681B6803F00803002B09D0124B34
:1024F8009B6823F460427B681B69DB000E49134329
:102508008B6000F021F802460B4B9B681B0903F017
:102518000F030A49CB5C22FA03F3094A1360094BFB
:102528001B681846FFF7CCF8002318461037BD463D
:1025380080BD00BF003C024000380240CC6F00085C
:1025480000000020040000202DE9B04384B000AF53
:1025580000237B600023FB6000233B600023BB60FB
:10256800674B9B6803F00C03082B0DD0082B00F277
:10257800BD80002B02D0042B03D0B7E0614BBB60B9
:10258800B7E0614BBB60B4E05D4B5B6803F03F03B1
:102598007B605B4B5B6803F48003002B4DD0584B8A
:1025A8005B689B091A464FF0000340F2FF104FF09A
:1025B800000102EA000803EA0109404649464FF0D3
:1025C80000024FF000034B0143EAD063420110467A
:1025D8001946B0EB080061EB09014FF000024FF01B
:1025E80000038B0143EA90638201121A63EB010333
:1025F8004FF000004FF00001D90041EA5271D000BD
:1026080002460B4612EB080243EB09034FF00000A9
:102618004FF00001590241EAD251500202460B46DE
:10262800104619467B681A464FF00003FDF7C8FDAF
:1026380002460B461346FB604AE0314B5B689B0938
:102648001A464FF0000340F2FF104FF0000102EA73
:10265800000403EA0105204629464FF000024FF026
:1026680000034B0143EAD063420110461946001BA0
:1026780061EB05014FF000024FF000038B0143EAC4
:1026880090638201121A63EB01034FF000004FF0D0
:102698000001D90041EA5271D00002460B461219D6
:1026A80045EB03034FF000004FF00001990241EAA7
:1026B8009251900202460B46104619467B681A460C
:1026C8004FF00003FDF77CFD02460B461346FB6006
:1026D8000B4B5B681B0C03F0030301335B003B608F
:1026E800FA683B68B2FBF3F3BB6002E0054BBB60E2
:1026F80000BFBB6818461037BD46BDE8B08300BFB1
:10270800003802400024F40000127A0080B400AFC0
:10271800034B1B681846BD465DF8047B704700BF35
:102728000000002080B500AFFFF7F0FF0246054B20
:102738009B689B0A03F007030349CB5C22FA03F367
:10274800184680BD00380240DC6F000880B500AF35
:10275800FFF7DCFF0246054B9B685B0B03F00703A2
:102768000349CB5C22FA03F3184680BD00380240C7
:10277800DC6F000880B582B000AF78607B68002B02
:1027880001D101237BE07B685B6A002B08D17B6861
:102798005B68B3F5827F09D07B680022DA6105E0C7
:1027A8007B6800221A617B6800225A617B680022DC
:1027B8009A627B6893F85130DBB2002B06D17B68B4
:1027C800002283F850207868FEF710FD7B6802220B
:1027D80083F851207B681B681A687B681B6822F0A5
:1027E80040021A607B685B6803F482727B689B68AE
:1027F80003F404431A437B68DB6803F400631A4359
:102808007B681B6903F002031A437B685B6903F06A
:1028180001031A437B689B6903F400731A437B68BE
:10282800DB6903F038031A437B681B6A03F08003F3
:1028380042EA03017B689B6A03F400527B681B68C9
:102848000A431A607B689B691B0C03F004017B68D0
:102858005B6A03F010027B681B680A435A607B6856
:102868001B68DA697B681B6822F40062DA617B689E
:1028780000225A657B68012283F8512000231846FC
:102888000837BD4680BD80B584B000AFF860B96038
:102898007A60FB68002B01D1012334E0FB6893F8D0
:1028A8004930DBB2002B06D1FB68002283F84820B0
:1028B800F868FDF7C7FEFB681A68FB680833194615
:1028C800104601F0A7FAFB681868FB689B681A466F
:1028D800B96801F0F1FAFB685868FB689A68FB6808
:1028E8001B6B796801F026FBFB681B68FA68926825
:1028F80053F82210FB681B68FA68926841F00101DE
:1029080043F82210002318461037BD4680BD80B515
:1029180082B000AF78607B68002B01D1012341E0D1
:102928007B6893F83D30DBB2002B06D17B68002230
:1029380083F83C207868FEF76FFD7B68022283F8F5
:102948003D207B681A687B6804331946104600F0FE
:102958002FFA7B68012283F846207B68012283F8DE
:102968003E207B68012283F83F207B68012283F8A0
:1029780040207B68012283F841207B68012283F88C
:1029880042207B68012283F843207B68012283F878
:1029980044207B68012283F845207B68012283F864
:1029A8003D20002318460837BD4680BD80B582B05B
:1029B80000AF78607B681B681B6903F00203022B79
:1029C80022D17B681B68DB6803F00203022B1BD152
:1029D8007B681B686FF002021A617B6801221A7714
:1029E8007B681B689B6903F00303002B03D078689E
:1029F80000F0BFF905E0786800F0B1F9786800F0F8
:102A0800C2F97B6800221A777B681B681B6903F090
:102A18000403042B22D17B681B68DB6803F00403E2
:102A2800042B1BD17B681B686FF004021A617B685A
:102A380002221A777B681B689B6903F44073002B9A
:102A480003D0786800F095F905E0786800F087F918
:102A5800786800F098F97B6800221A777B681B6811
:102A68001B6903F00803082B22D17B681B68DB680D
:102A780003F00803082B1BD17B681B686FF0080262
:102A88001A617B6804221A777B681B68DB6903F08C
:102A98000303002B03D0786800F06BF905E0786831
:102AA80000F05DF9786800F06EF97B6800221A770B
:102AB8007B681B681B6903F01003102B22D17B680D
:102AC8001B68DB6803F01003102B1BD17B681B68A5
:102AD8006FF010021A617B6808221A777B681B68FE
:102AE800DB6903F44073002B03D0786800F041F9E8
:102AF80005E0786800F033F9786800F044F97B68FD
:102B080000221A777B681B681B6903F00103012BFD
:102B18000ED17B681B68DB6803F00103012B07D12A
:102B28007B681B686FF001021A61786800F00DF984
:102B38007B681B681B6903F08003802B0ED17B68C0
:102B48001B68DB6803F08003802B07D17B681B6858
:102B58006FF080021A61786800F0EAFA7B681B68F7
:102B68001B6903F04003402B0ED17B681B68DB68B0
:102B780003F04003402B07D17B681B686FF04002CD
:102B88001A61786800F009F97B681B681B6903F013
:102B98002003202B0ED17B681B68DB6803F0200321
:102BA800202B07D17B681B686FF020021A617868B8
:102BB80000F0B4FA00BF0837BD4680BD80B584B0C8
:102BC80000AF786039600023FB737B6893F83C3072
:102BD800012B01D10223B4E07B68012283F83C2059
:102BE8007B68022283F83D207B681B689B68BB607A
:102BF800BB6823F07703BB60BB6823F47F43BB60EB
:102C08007B681B68BA689A603B681B68B3F5005F0D
:102C18003ED0B3F5005F00F28780B3F5805F00F027
:102C28008680B3F5805F7FD8702B1AD0702B7BD845
:102C3800602B50D0602B77D8502B3CD0502B73D8BA
:102C4800402B58D0402B6FD8302B64D0302B6BD80A
:102C5800202B60D0202B67D8002B5CD0102B5AD0AB
:102C680062E07B6818683B6899683B685A683B680B
:102C7800DB6800F0B7F97B681B689B68BB60BB68C2
:102C880043F07703BB607B681B68BA689A604FE0C3
:102C98007B6818683B6899683B685A683B68DB68DA
:102CA80000F0A0F97B681B689A687B681B6842F48F
:102CB80080429A603CE07B6818683B6859683B68CA
:102CC800DB681A4600F014F97B681B685021184627
:102CD80000F06DF92CE07B6818683B6859683B6820
:102CE800DB681A4600F033F97B681B6860211846D8
:102CF80000F05DF91CE07B6818683B6859683B6820
:102D0800DB681A4600F0F4F87B681B684021184617
:102D180000F04DF90CE07B681A683B681B6819469F
:102D2800104600F044F903E00123FB7300E000BF04
:102D38007B68012283F83D207B68002283F83C20D1
:102D4800FB7B18461037BD4680BD80B483B000AF0A
:102D5800786000BF0C37BD465DF8047B704780B4CF
:102D680083B000AF786000BF0C37BD465DF8047BC8
:102D7800704780B483B000AF786000BF0C37BD46A1
:102D88005DF8047B704780B483B000AF786000BF03
:102D98000C37BD465DF8047B704780B483B000AF44
:102DA800786000BF0C37BD465DF8047B70470000B3
:102DB80080B485B000AF786039607B681B68FB60C1
:102DC8007B68404A934213D07B68B3F1804F0FD0A1
:102DD8007B683D4A93420BD07B683C4A934207D0BC
:102DE8007B683B4A934203D07B683A4A934208D1B6
:102DF800FB6823F07003FB603B685B68FA68134369
:102E0800FB607B682F4A93422BD07B68B3F1804FDD
:102E180027D07B682C4A934223D07B682B4A934265
:102E28001FD07B682A4A93421BD07B68294A934269
:102E380017D07B68284A934213D07B68274A93426D
:102E48000FD07B68264A93420BD07B68254A934271
:102E580007D07B68244A934203D07B68234A934275
:102E680008D1FB6823F44073FB603B68DB68FA68B1
:102E78001343FB60FB6823F080023B685B691343E4
:102E8800FB607B68FA681A603B689A687B68DA625C
:102E98003B681A687B689A627B680A4A934203D047
:102EA8007B680C4A934203D13B681A697B681A63B2
:102EB8007B6801225A6100BF1437BD465DF8047B68
:102EC800704700BF000001400004004000080040B7
:102ED800000C004000040140004001400044014053
:102EE8000048014000180040001C0040002000403D
:102EF80080B487B000AFF860B9607A60FB681B6A7D
:102F08007B61FB681B6A23F00102FB681A62FB689D
:102F18009B693B613B6923F0F0033B617B681B01C4
:102F28003A6913433B617B6923F00A037B617A6941
:102F3800BB6813437B61FB683A699A61FB687A69ED
:102F48001A6200BF1C37BD465DF8047B704780B429
:102F580087B000AFF860B9607A60FB681B6A23F03D
:102F68001002FB681A62FB689B697B61FB681B6A3D
:102F78003B617B6923F470437B617B681B037A693F
:102F880013437B613B6923F0A0033B61BB681B01D2
:102F98003A6913433B61FB687A699A61FB683A694D
:102FA8001A6200BF1C37BD465DF8047B704780B4C9
:102FB80085B000AF786039607B689B68FB60FB6810
:102FC80023F07003FB603A68FB68134343F0070380
:102FD800FB607B68FA689A6000BF1437BD465DF8ED
:102FE800047B704780B487B000AFF860B9607A603E
:102FF8003B60FB689B687B617B6923F47F437B6153
:103008003B681A027B681A43BB6813437A69134307
:103018007B61FB687A699A6000BF1C37BD465DF822
:10302800047B704780B485B000AF786039607B68F6
:1030380093F83C30012B01D102235AE07B6801222E
:1030480083F83C207B68022283F83D207B681B685C
:103058005B68FB607B681B689B68BB60FB6823F050
:103068007003FB603B681B68FA681343FB607B686E
:103078001B68FA685A607B681B68214A934222D011
:103088007B681B68B3F1804F1DD07B681B681D4AA5
:10309800934218D07B681B681B4A934213D07B6805
:1030A8001B681A4A93420ED07B681B68184A9342E1
:1030B80009D07B681B68174A934204D07B681B6859
:1030C800154A93420CD1BB6823F08003BB603B6870
:1030D8005B68BA681343BB607B681B68BA689A6010
:1030E8007B68012283F83D207B68002283F83C201E
:1030F800002318461437BD465DF8047B704700BFAF
:10310800000001400004004000080040000C00409E
:1031180000040140004001400018004080B483B022
:1031280000AF786000BF0C37BD465DF8047B704780
:1031380080B483B000AF786000BF0C37BD465DF83F
:10314800047B704780B582B000AF78607B68002B45
:1031580001D101233FE07B6893F83D30DBB2002BBF
:1031680006D17B68002283F83C207868FEF7CEF908
:103178007B68242283F83D207B681B68DA687B68BB
:103188001B6822F40052DA60786800F07BFC7B68E8
:103198001B681A697B681B6822F490421A617B6875
:1031A8001B685A697B681B6822F02A025A617B688F
:1031B8001B68DA687B681B6842F40052DA607B6837
:1031C80000221A647B68202283F83D207B68202235
:1031D80083F83E20002318460837BD4680BD00000E
:1031E80080B5BAB000AF78607B681B681B68C7F809
:1031F800E4307B681B68DB68C7F8E0307B681B68D5
:103208005B69C7F8DC300023C7F8D8300023C7F85B
:10321800D430D7F8E43003F00F03C7F8D830D7F824
:10322800D830002B0FD1D7F8E43003F02003002B5F
:1032380009D0D7F8E03003F02003002B03D07868DA
:1032480000F065FB56E2D7F8D830002B00F0DE809E
:10325800D7F8DC3003F00103002B06D1D7F8E030B3
:1032680003F49073002B00F0D180D7F8E43003F01A
:103278000103002B0BD0D7F8E03003F48073002B48
:1032880005D07B681B6C43F001027B681A64D7F891
:10329800E43003F00403002B0BD0D7F8DC3003F044
:1032A8000103002B05D07B681B6C43F002027B688E
:1032B8001A64D7F8E43003F00203002B0BD0D7F8D8
:1032C800DC3003F00103002B05D07B681B6C43F056
:1032D80004027B681A64D7F8E43003F00803002B73
:1032E80011D0D7F8E03003F02003002B05D1D7F830
:1032F800DC3003F00103002B05D07B681B6C43F026
:1033080008027B681A647B681B6C002B00F0ED8157
:10331800D7F8E43003F02003002B08D0D7F8E030CA
:1033280003F02003002B02D0786800F0F0FA7B68E5
:103338001B685B6903F04003402B0CBF012300238B
:10334800DBB2C7F8D4307B681B6C03F00803002B92
:1033580003D1D7F8D430002B4FD0786800F0F8F9B3
:103368007B681B685B6903F04003402B41D17B6895
:103378001B681433C7F89C30D7F89C3053E8003FDB
:10338800C7F89830D7F8983023F04003C7F8D03002
:103398007B681B681433D7F8D020C7F8A820C7F873
:1033A800A430D7F8A410D7F8A82041E80023C7F81C
:1033B800A030D7F8A030002BD9D17B689B6B002BAD
:1033C80013D07B689B6B7D4A1A657B689B6B18469C
:1033D800FEF76BFB0346002B16D07B689B6B1B6DBF
:1033E8007A68926B104698470EE0786800F09AF970
:1033F8000AE0786800F096F906E0786800F092F93B
:103408007B6800221A6470E100BF6EE17B681B6B69
:10341800012B40F04A81D7F8E43003F01003002B69
:1034280000F04381D7F8E03003F01003002B00F0E0
:103438003C810023BB607B681B681B68BB607B68A2
:103448001B685B68BB60BB687B681B685B6903F0D3
:103458004003402B40F0B4807B689B6B1B685B6823
:10346800A7F8BE30B7F8BE30002B00F040817B686B
:103478009B8DB7F8BE209A4280F039817B68B7F8F7
:10348800BE20DA857B689B6BDB69B3F5807F00F033
:1034980088807B681B680C33C7F88830D7F8883079
:1034A80053E8003FC7F88430D7F8843023F480739A
:1034B800C7F8B8307B681B680C33D7F8B820C7F852
:1034C8009420C7F89030D7F89010D7F8942041E8A6
:1034D8000023C7F88C30D7F88C30002BD9D17B6803
:1034E8001B6814337B677B6F53E8003F3B673B6F78
:1034F80023F00103C7F8B4307B681B681433D7F88E
:10350800B420C7F88020FB67F96FD7F8802041E81E
:103518000023BB67BB6F002BE1D17B681B681433AA
:103528003B663B6E53E8003FFB65FB6D23F04003B1
:10353800C7F8B0307B681B681433D7F8B020FA6638
:10354800BB66B96EFA6E41E800237B667B6E002B82
:10355800E3D17B68202283F83E207B6800221A632F
:103568007B681B680C33FB64FB6C53E8003FBB644F
:10357800BB6C23F01003C7F8AC307B681B680C33B6
:10358800D7F8AC20BA657B65796DBA6D41E8002340
:103598003B653B6D002BE3D17B689B6B1846FEF7C0
:1035A80014FA7B689A8D7B68DB8D9BB2D31A9BB229
:1035B8001946786800F0C0F899E000BF1F38000885
:1035C8007B689A8D7B68DB8D9BB2D31AA7F8CE30C7
:1035D8007B68DB8D9BB2002B00F08B80B7F8CE3078
:1035E800002B00F086807B681B680C33BB63BB6BC9
:1035F80053E8003F7B637B6B23F49073C7F8C830B4
:103608007B681B680C33D7F8C8207A643B64396C34
:103618007A6C41E80023FB63FB6B002BE3D17B68EA
:103628001B6814337B627B6A53E8003F3B623B6A4A
:1036380023F00103C7F8C4307B681B681433D7F83C
:10364800C4203A63FB62F96A3A6B41E80023BB6223
:10365800BB6A002BE3D17B68202283F83E207B687D
:1036680000221A637B681B680C333B613B6953E893
:10367800003FFB60FB6823F01003C7F8C0307B688D
:103688001B680C33D7F8C020FA61BB61B969FA69C5
:1036980041E800237B617B69002BE3D1B7F8CE308A
:1036A8001946786800F048F823E0D7F8E43003F0CA
:1036B8008003002B09D0D7F8E03003F08003002BFB
:1036C80003D0786800F0BBF814E0D7F8E43003F0D2
:1036D8004003002B0ED0D7F8E03003F04003002B56
:1036E80008D0786800F0FBF804E000BF02E000BFF3
:1036F80000E000BFE837BD4680BD00BF80B483B09E
:1037080000AF786000BF0C37BD465DF8047B70479A
:1037180080B483B000AF786000BF0C37BD465DF859
:10372800047B704780B483B000AF786000BF0C376B
:10373800BD465DF8047B704780B483B000AF786005
:103748000B467B8000BF0C37BD465DF8047B704795
:1037580080B495B000AF78607B681B680C337B63DE
:103768007B6B53E8003F3B633B6B23F49073FB6434
:103778007B681B680C33FA6C3A64FB63F96B3A6C30
:1037880041E80023BB63BB6B002BE5D17B681B685A
:1037980014333B623B6A53E8003FFB61FB6923F04B
:1037A8000103BB647B681B681433BA6CFA62BB62A2
:1037B800B96AFA6A41E800237B627B6A002BE5D18B
:1037C8007B681B6B012B19D17B681B680C33FB6072
:1037D800FB6853E8003FBB60BB6823F010037B64C1
:1037E8007B681B680C337A6CBA617B617969BA694A
:1037F80041E800233B613B69002BE5D17B6820222F
:1038080083F83E207B6800221A6300BF5437BD4608
:103818005DF8047B704780B584B000AF78607B6842
:103828009B6BFB60FB680022DA85FB680022DA8468
:10383800F868FFF777FF00BF1037BD4680BD80B43A
:1038480085B000AF78607B6893F83D30DBB2212B00
:103858003ED17B689B68B3F5805F14D17B681B6998
:10386800002B10D17B681B6AFB60FB681B881A461B
:103878007B681B68C2F308025A607B681B6A9A1C43
:103888007B681A6208E07B681B6A591C7A681162B7
:103898001A787B681B685A607B68DB8C9BB2013B9B
:1038A8009BB27A681946D184002B0FD17B681B68BC
:1038B800DA687B681B6822F08002DA607B681B6824
:1038C800DA687B681B6842F04002DA60002300E097
:1038D800022318461437BD465DF8047B704780B54F
:1038E80082B000AF78607B681B68DA687B681B6809
:1038F80022F04002DA607B68202283F83D20786855
:10390800FFF7FCFE002318460837BD4680BD80B58A
:103918008CB000AF78607B6893F83E30DBB2222B26
:1039280040F0AB807B689B68B3F5805F17D17B68FC
:103938001B69002B13D10023FB627B689B6ABB6267
:103948007B681B685B689BB2C3F308039AB2BB6AC7
:103958001A807B689B6A9A1C7B689A6226E07B685F
:103968009B6AFB620023BB627B689B68B3F5805F40
:1039780007D07B689B68002B0AD17B681B69002BEA
:1039880006D17B681B685B68DAB2FB6A1A7008E0CC
:103998007B681B685B68DBB203F07F03DAB2FB6A03
:1039A8001A707B689B6A5A1C7B689A627B68DB8DFD
:1039B8009BB2013B9BB27A681946D185002B5AD13C
:1039C8007B681B68DA687B681B6822F02002DA6073
:1039D8007B681B68DA687B681B6822F48072DA608F
:1039E8007B681B685A697B681B6822F001025A6170
:1039F8007B68202283F83E207B681B6B012B35D126
:103A08007B6800221A637B681B680C337B617B69C7
:103A180053E8003F3B613B6923F010037B627B68FE
:103A28001B680C337A6A3A62FB61F9693A6A41E8C1
:103A38000023BB61BB69002BE5D17B681B681B6851
:103A480003F01003102B0AD10023FB607B681B686E
:103A58001B68FB607B681B685B68FB60FB687B68B6
:103A68009B8D19467868FFF767FE02E07868FFF7D4
:103A78004FFE002302E0002300E0022318463037FF
:103A8800BD4680BD2DE9F04F9FB000AFF866FB6ED4
:103A98001B681B6923F44050FB6ED968FB6E1A68DB
:103AA80040EA01031361FB6E9A68FB6E1B691A43B7
:103AB800FB6E5B691A43FB6EDB6913433B67FB6E66
:103AC8001B68DB6823F4164121F00C01FB6E1A68B1
:103AD8003B6F0B43D360FB6E1B685B6923F440703C
:103AE800FB6E9969FB6E1A6840EA01035361FB6E2D
:103AF8001A68C54B9A4204D0FB6E1A68C34B9A42A7
:103B080003D1FEF723FE786702E0FEF70BFE786725
:103B1800FB6EDB69B3F5004F40F0B6807B6F1C4647
:103B28004FF0000522462B46911839645B417B64AF
:103B3800D7E91023121945EB03034FF000004FF0AB
:103B48000001D90041EA5271D00002460B46111912
:103B580039666B417B66FB6E5B681A464FF0000363
:103B68009118B9635B41FB63D7E90E23D7E91801C4
:103B7800FCF726FB02460B46A54BA3FB02235B0979
:103B88001E017B6F1C464FF0000522462B469118FC
:103B980039635B417B63D7E90C23121945EB0303B7
:103BA8004FF000004FF00001D90041EA5271D000F7
:103BB80002460B461119B9656B41FB65FB6E5B68E4
:103BC8001A464FF000039118B9625B41FB62D7E9CE
:103BD8000A23D7E91601FCF7F3FA02460B468C4B89
:103BE800A3FB02135B09642101FB03F3D31ADB0077
:103BF8003233874AA2FB03235B095B0003F4F873A3
:103C08001E447B6F18464FF0000102460B4694187D
:103C18003C625B417B62D7E90823121841EB03033E
:103C28004FF000044FF00005DD0045EA5275D4005E
:103C380022462B4614183C654B417B65FB6E5B683E
:103C48001A464FF000039118B9615B41FB61D7E94F
:103C58000623D7E91401FCF7B3FA02460B466C4B6E
:103C6800A3FB02135B09642101FB03F3D31ADB00F6
:103C78003233674AA2FB03235B0903F00702FB6E9A
:103C88001B6832449A60B9E07B6F1C464FF0000510
:103C980022462B46911839615B417B61D7E90423A1
:103CA800121945EB03034FF000004FF00001D90053
:103CB80041EA5271D00002460B4612EB040843EB6E
:103CC8000509FB6E5B6818464FF000014FF00002D3
:103CD8004FF000038B0043EA907382004046494648
:103CE800FCF76EFA02460B46494BA3FB02235B091D
:103CF8001E017B6F18464FF0000102460B469418D0
:103D0800BC605B41FB60D7E90223121841EB030357
:103D18004FF000044FF00005DD0045EA5275D4006D
:103D280022462B461418BC644B41FB64FB6E5B684F
:103D380018464FF000014FF000024FF000038B00CF
:103D480043EA90738200D7E91201FCF739FA024678
:103D58000B462F4BA3FB02135B09642101FB03F302
:103D6800D31A1B0132332A4AA2FB03235B0903F04F
:103D7800F0031E447B6F18464FF0000102460B46C5
:103D880094183C605B417B60D7E90023121841EB33
:103D980003034FF000044FF00005DD0045EA5275BB
:103DA800D40022462B4612EB000A43EB010BFB6EB4
:103DB8005B6818464FF000014FF000024FF0000317
:103DC8008B0043EA9073820050465946FCF7F8F995
:103DD80002460B460E4BA3FB02135B09642101FB51
:103DE80003F3D31A1B013233094AA2FB03235B09ED
:103DF80003F00F02FB6E1B6832449A6000BF7C37E9
:103E0800BD46BDE8F08F00BF00100140001401401E
:103E18001F85EB5180B485B000AF7860396000230E
:103E2800FB603B681A687B6853F82230FB60FA68CD
:103E3800204B1340FB603B685A683B689B681A43F9
:103E48003B68DB681A433B681B691A433B685B693C
:103E58001A433B689B691A433B68DB691A433B6812
:103E68001B6A1A433B685B6A1A433B689B6A1A439E
:103E78003B68DB6A1A433B68DB6B1A433B681B6B86
:103E88001343FA681343FB603B689B68082B03D114
:103E9800FB6843F04003FB603B681A687B68F9687D
:103EA80043F82210002318461437BD465DF8047BFA
:103EB800704700BF8000F0FF80B487B000AFF860A3
:103EC800B9607A6000237B617B685A1CFB6853F8F1
:103ED80022307B617B6903F040437B61BB681A68D1
:103EE800BB685B681B011A43BB689B681B021A43CB
:103EF800BB68DB681B041A43BB681B69013B1B05D5
:103F08001A43BB685B69023B1B061A43BB689B6983
:103F180013437A6913437B617B685A1CFB68796990
:103F280043F82210002318461C37BD465DF8047B71
:103F38007047000080B487B000AFF860B9607A605D
:103F48003B6000237B613B68B3F5804F22D1FB685F
:103F58007A6853F822307B617A69154B13407B618C
:103F6800BB681A68BB685B681B011A43BB689B681F
:103F78001B021A43BB68DB681B041A43BB689B69B6
:103F880013437A6913437B61FB687A68796943F85C
:103F9800221005E0FB687A686FF0704143F8221040
:103FA800002318461C37BD465DF8047B704700BFE8
:103FB8000000F0CF70B50D4D0D4C641BA410002609
:103FC800A64209D10B4D0C4C00F020F8641BA4103C
:103FD8000026A64205D170BD55F8043B9847013626
:103FE800EEE755F8043B98470136F2E7EC6F000816
:103FF800EC6F0008EC6F0008F06F000802440346FD
:10400800934200D1704703F8011BF9E7F8B500BFE8
:10401800F8BC08BC9E467047F8B500BFF8BC08BCA1
:044028009E467047F9
:10402C000100000001000000010000000100000080
:10403C000100000001000000010000000100000070
:10404C000000000000000000000000000000000064
:10405C0000000008080808080808000018180000EC
:10406C0000486C241200000000000000000000005A
:10407C000000002424247F1212127F12121200005E
:10408C000000081C2A2A0A0C1828282A2A1C0808AE
:10409C0000000022251515152A58545454220000EE
:1040AC000000000C1212120A76252911916E0000E4
:1040BC0000060604030000000000000000000000E1
:1040CC0000402010100808080808081010204000B4
:1040DC000002040808101010101010080804020048
:1040EC000000000008086B1C1C6B08080000000096
:1040FC0000000000080808087F08080808000000F5
:10410C000000000000000000000000000606040390
:10411C000000000000000000FE0000000000000095
:10412C000000000000000000000000000606000077
:10413C0000008040402020101008080404020200F7
:10414C00000000182442424242424242241800001D
:10415C00000000080E08080808080808083E0000BF
:10416C000000003C4242422020100804427E000025
:10417C000000003C4242201820404042221C00001B
:10418C00000000203028242422227E2020780000E9
:10419C000000007E0202021A26404042221C00004F
:1041AC00000000382402021A264242422418000061
:1041BC000000007E222210100808080808080000E1
:1041CC000000003C4242422418244242423C00007F
:1041DC00000000182442424264584040241C000055
:1041EC000000000000001818000000001818000063
:1041FC000000000000000008000000000008080497
:10420C0000000040201008040204081020400000A8
:10421C000000000000007F0000007F000000000094
:10422C0000000002040810204020100804020000C6
:10423C000000003C424246402010100018180000BC
:10424C000000001C225A555555552D42221C0000C9
:10425C000000000808181414243C224242E7000015
:10426C000000001F2222221E22424242221F000076
:10427C000000007C4242010101010142221C0000AD
:10428C000000001F2242424242424242221F0000D2
:10429C000000003F4212121E12120242423F000066
:1042AC000000003F4212121E12120202020700000E
:1042BC000000003C2222010101712122221C00007D
:1042CC00000000E7424242427E42424242E7000086
:1042DC000000003E0808080808080808083E00000E
:1042EC000000007C10101010101010101010110F86
:1042FC000000007722120A0E0A1212222277000006
:10430C00000000070202020202020202427F0000C9
:10431C0000000077363636362A2A2A2A2A6B000005
:10432C00000000E346464A4A52525262624700007D
:10433C000000001C2241414141414141221C00002E
:10434C000000003F424242423E02020202070000CD
:10435C000000001C2241414141414D53321C600080
:10436C000000003F4242423E1212222242C700008D
:10437C000000007C4242020418204042423E0000F1
:10438C000000007F4908080808080808081C0000FD
:10439C00000000E74242424242424242423C00009C
:1043AC00000000E7424222242414141808080000DC
:1043BC000000006B4949494955553622222200001C
:1043CC00000000E7422424181818242442E70000B7
:1043DC00000000772222141408080808081C0000AA
:1043EC000000007E2120101008040442423F00000F
:1043FC000078080808080808080808080808780061
:10440C00000002020404080808101020202040407C
:10441C00001E1010101010101010101010101E0094
:10442C000038440000000000000000000000000004
:10443C00000000000000000000000000000000FF71
:10444C000006080000000000000000000000000052
:10445C00000000000000003C4278444242FC000096
:10446C00000000030202021A26424242261A0000F1
:10447C000000000000000038440202024438000032
:10448C0000000060404040784442424264D8000042
:10449C00000000000000003C427E0202423C000092
:1044AC00000000F08808087E08080808083E000094
:1044BC00000000000000007C22221C023C42423C16
:1044CC00000000030202023A4642424242E7000068
:1044DC000000000C0C00000E08080808083E000044
:1044EC000000003030000038202020202020221E28
:1044FC000000000302020272120A16122277000058
:10450C000000000E0808080808080808083E00000B
:10451C00000000000000007F9292929292B700007F
:10452C00000000000000003B4642424242E700000F
:10453C00000000000000003C42424242423C0000AD
:10454C00000000000000001B26424242221E02070F
:10455C00000000000000007844424242447840E0F1
:10456C0000000000000000774C040404041F00004D
:10457C00000000000000007C42023C40423E000073
:10458C00000000000008083E080808080830000079
:10459C0000000000000000634242424262DC000066
:1045AC0000000000000000E742242414080800006A
:1045BC0000000000000000EB494955552222000084
:1045CC00000000000000007624181818246E00006B
:1045DC0000000000000000E742242414180808071B
:1045EC00000000000000007E22100808447E00003D
:1045FC0000C0202020202010202020202020C000BF
:10460C00101010101010101010101010101010109E
:10461C00000608080808081008080808080806001A
:10462C000C32C2000000000000000000000000007E
:10463C00000000000000000000000000000000006E
:10464C00000000000000000000000000000000005E
:10465C00000000000000000000000000000000004E
:10466C000000000000000000E000E000E000E000BE
:10467C00E0004000400040004000400040000000CE
:10468C0000000000E000E000E0000000000000007E
:10469C0000000000600660063003980188004400AA
:1046AC0000000000000000000000000000000000FE
:1046BC0000000000000000000000000000000000EE
:1046CC0000000000000000000000080208020802C0
:1046DC000802FE07FE070802080204010401FE0797
:1046EC00FE070401040104010401000000000000A5
:1046FC0000000000000040004000F00158034C0393
:10470C004C034C0058007000E000C001C001400395
:10471C004C034C034C034801F000400040000000E7
:10472C00000000000000000000000E030A0111014F
:10473C0091009100D1005100FA03AE0260045004C4
:10474C005004580448048802840300000000000050
:10475C00000000000000000000003800640064004D
:10476C0064006400A4031C010C011A019200B30044
:10477C00E3006300C300A6041C030000000000005B
:10478C00000000000C001C001000100008000600C7
:10479C00000000000000000000000000000000000D
:1047AC0000000000000000000000000000000000FD
:1047BC000000000000040002000180018000C00025
:1047CC00C00060006000600060006000600060007D
:1047DC00C000C00080008001000100020004000045
:1047EC000000000002000400080018001000300057
:1047FC0030006000600060006000600060006000DD
:10480C003000300010001800080004000200000006
:10481C00000000000000000000000000400040000C
:10482C0040004E0E5C07F001F0015C074E0E40009C
:10483C0040004000000000000000000000000000EC
:10484C00000000000000000000000000000040001C
:10485C004000400040004000FE0F4000400040007F
:10486C0040004000000000000000000000000000BC
:10487C00000000000000000000000000000000002C
:10488C00000000000000000000000000000000001C
:10489C00000000000C001C001000100008000600B6
:1048AC0000000000000000000000000000000000FC
:1048BC000000000000000000FE07000000000000E7
:1048CC0000000000000000000000000000000000DC
:1048DC0000000000000000000000000000000000CC
:1048EC0000000000000000000000000000000000BC
:1048FC00000000001C001C001C0000000000000058
:10490C00000000000004000600020003000100018A
:10491C00800080004000400060002000200010005B
:10492C001000080008000C00040006000200000043
:10493C0000000000000000000000F00098010C03D3
:10494C000C030606060606060606060606060606F8
:10495C0006060C030C039801F00000000000000098
:10496C0000000000000000000000400060007C001F
:10497C00600060006000600060006000600060002B
:10498C006000600060006000FC030000000000009C
:10499C0000000000000000000000F8008401020389
:1049AC0006030603000380018001C00020001000F4
:1049BC00080204020202FE03FE03000000000000D5
:1049CC00000000000000000000007800C400860118
:1049DC00860186018001C000700080010001000387
:1049EC000603060306038401F80000000000000023
:1049FC00000000000000000000018001C001C001A7
:104A0C00A001900190018801840184018201FE07BC
:104A1C008001800180018001E0070000000000009F
:104A2C0000000000000000000000FC03FC03040078
:104A3C00040004000400F4008C01040300030003D0
:104A4C000603060382018401F80000000000000048
:104A5C0000000000000000000000E00118030C033F
:104A6C000C0004000600E60116030E0606060606F8
:104A7C00060604060C021803F000000000000000FB
:104A8C0000000000000000000000F807FC070C020A
:104A9C00040104010001800080004000400040003F
:104AAC00600060006000600060000000000000001A
:104ABC0000000000000000000000F8010C030606D6
:104ACC00060606060E023C03F000CC0104030606A3
:104ADC000606060606060C03F001000000000000A6
:104AEC0000000000000000000000F0000C010C03AE
:104AFC00060206060606060606078C06780600065B
:104B0C00000300030C018C01780000000000000081
:104B1C000000000000000000000000000000000089
:104B2C000000E000E000E0000000000000000000D9
:104B3C0000000000E000E000E000000000000000C9
:104B4C000000000000000000000000000000000059
:104B5C000000000060006000000000000000000089
:104B6C000000000000006000600040002000000019
:104B7C0000000000000000000004000200018000A2
:104B8C004000200010000800040008001000200065
:104B9C004000800000010002000400000000000042
:104BAC0000000000000000000000000000000000F9
:104BBC0000000000FE070000000000000000FE07DF
:104BCC0000000000000000000000000000000000D9
:104BDC00000000000000000004000800100020008D
:104BEC00400080000001000200040002000180006F
:104BFC00400020001000080004000000000000002D
:104C0C000000000000000000F0010C030206020688
:104C1C00060606060003800160002000200020002C
:104C2C000000000070007000700000000000000028
:104C3C0000000000000000000000E001380608043D
:104C4C00CC0A640B2609260916091609960996053D
:104C5C0066030C080C041802E001000000000000C0
:104C6C000000000000000000000060006000700008
:104C7C00D000D000C800880188018801F801040325
:104C8C0004030403040606060F0F000000000000D6
:104C9C0000000000000000000000FF008601060379
:104CAC000603060306038601FE000603060206063B
:104CBC000606060606060603FF01000000000000BB
:104CCC0000000000000000000000E00718060C04C3
:104CDC000C04040006000600060006000600060090
:104CEC0006040C040C021801F00000000000000087
:104CFC00000000000000000000007F008601060399
:104D0C00060306060606060606060606060606063A
:104D1C00060606030603C6017F0000000000000023
:104D2C0000000000000000000000FF030602060463
:104D3C000600060086008600FE008600860006003F
:104D4C000600060406040602FF0300000000000033
:104D5C0000000000000000000000FF030603060432
:104D6C000604060086008600FE008600860006000B
:104D7C0006000600060006000F0000000000000000
:104D8C0000000000000000000000F00218030C02FC
:104D9C000C0204000600060006000600C60F0603FF
:104DAC0006030C030C031803F000000000000000C5
:104DBC00000000000000000000000F0F06060606B1
:104DCC000606060606060606FE070606060606067E
:104DDC0006060606060606060F0F00000000000079
:104DEC0000000000000000000000FC0360006000F8
:104DFC0060006000600060006000600060006000A7
:104E0C006000600060006000FC0300000000000017
:104E1C0000000000000000000000F00F8001800185
:104E2C00800180018001800180018001800180016E
:104E3C00800180018001800180018601C6007C0018
:104E4C0000000000000000000000CF0706018600F3
:104E5C0046004600260036003E006E00E600C60006
:104E6C00C6018601060306078F0F00000000000034
:104E7C00000000000000000000000F00060006000B
:104E8C0006000600060006000600060006000600E6
:104E9C000600060406040602FF03000000000000E2
:104EAC00000000000000000000000F0F0E070E07AE
:104EBC000E079A069A069A069A065A067206720601
:104ECC007206720622062206270F00000000000060
:104EDC0000000000000000000000070E0E040E048D
:104EEC001A041A04320462046204C204C204820565
:104EFC000207020702060206070400000000000079
:104F0C0000000000000000000000F00098010C03FD
:104F1C000C02060606060606060606060606060623
:104F2C0006060C020C039801F000000000000000C3
:104F3C0000000000000000000000FF010603060650
:104F4C0006060606060606060603FE010600060011
:104F5C0006000600060006000F000000000000001E
:104F6C0000000000000000000000F00098010C039D
:104F7C000C020606060606060606060606060606C3
:104F8C0076064C028C038801F001800700030000B8
:104F9C0000000000000000000000FF0106030606F0
:104FAC000606060606060603FE006600C600C600D8
:104FBC0086018601060306030F0E000000000000A8
:104FCC0000000000000000000000F8040C070604BC
:104FDC00060406000E003C00F000C00300030006AF
:104FEC000206020606060E03F20100000000000095
:104FFC0000000000000000000000FE0762046108D1
:10500C00610860006000600060006000600060008B
:10501C006000600060006000F00000000000000014
:10502C00000000000000000000000F0E0604060443
:10503C000604060406040604060406040604060414
:10504C000604060406040C02F8010000000000002F
:10505C00000000000000000000001F0F0E060C02F4
:10506C000C020C020C011801180118011801B000F7
:10507C00B000B000F0006000600000000000000014
:10508C0000000000000000000000EF0E6604660443
:10509C0066026602E602EC02EC02DC01DC01DC01D9
:1050AC00DC019C01880088008800000000000000E2
:1050BC00000000000000000000009E070C03180117
:1050CC0018019800B000700060006000E000D00093
:1050DC00D001980188010C039E070000000000001D
:1050EC00000000000000000000001F0F0E060C0264
:1050FC000C0118011801B000B000700060006000D5
:10510C006000600060006000F8010000000000001A
:10511C0000000000000000000000FC0704038203F4
:10512C008001C001C000C000600060003000300091
:10513C00180018041C040C02FE0300000000000000
:10514C0000000000E00720002000200020002000CC
:10515C002000200020002000200020002000200043
:10516C00200020002000200020002000E00700008C
:10517C000000000000000000040008000800080007
:10518C001000100020002000200040004000800093
:10519C0080008000000100010002000200020004F7
:1051AC0000000000FC008000800080008000800077
:1051BC0080008000800080008000800080008000E3
:1051CC00800080008000800080008000FC000000D7
:1051DC0000000000E000B001080200000000000028
:1051EC0000000000000000000000000000000000B3
:1051FC0000000000000000000000000000000000A3
:10520C000000000000000000000000000000000092
:10521C000000000000000000000000000000000082
:10522C000000000000000000000000000000FF0F64
:10523C0000000000180060000000000000000000EA
:10524C000000000000000000000000000000000052
:10525C000000000000000000000000000000000042
:10526C000000000000000000000000000000000032
:10527C0000000000F0010C030C03E00338030C03E6
:10528C000603060306038E0B7C0F000000000000D3
:10529C00000000000000000008000E000C000C00D4
:1052AC000C000C00CC013C031C060C060C060C0676
:1052BC000C060C060C021C03F4010000000000009C
:1052CC0000000000000000000000000000000000D2
:1052DC0000000000F0008C018C0186010600060025
:1052EC00060006020C020C01F00000000000000099
:1052FC000000000000000000000280030003000317
:10530C000003000378038C030C0306030603060357
:10531C000603060304038C0778010000000000005C
:10532C000000000000000000000000000000000071
:10533C0000000000E001180308060C06FC070C0036
:10534C000C000C0018043802E00100000000000002
:10535C0000000000000000000000C00360063006E2
:10536C0030003000FE0330003000300030003000E0
:10537C003000300030003000FC0100000000000064
:10538C000000000000000000000000000000000011
:10539C0000000000F00E98090C030C030C0398019C
:1053AC00F8000C007C00F803060606060E07F80150
:1053BC00000000000000000008000E000C000C00B3
:1053CC000C000C00EC011C030C030C030C030C0371
:1053DC000C030C030C030C039E07000000000000E0
:1053EC0000000000000000000000600060000000F1
:1053FC00000000007C006000600060006000600045
:10540C006000600060006000FC0300000000000011
:10541C00000000000000000000008001800100007E
:10542C0000000000F00180018001800180018001FA
:10543C00800180018001800180018001CC007C0012
:10544C00000000000000000008000E000C000C0022
:10545C000C000C00CC038C00CC004C006C007C00CD
:10546C00DC00CC008C018C019E07000000000000C9
:10547C00000000000000000040007C0060006000A4
:10548C006000600060006000600060006000600010
:10549C006000600060006000FC0300000000000081
:1054AC0000000000000000000000000000000000F0
:1054BC00000000007707EE066606660666066606BE
:1054CC006606660666066606EF0E00000000000023
:1054DC0000000000000000000000000000000000C0
:1054EC0000000000CE013C030C030C030C030C0366
:1054FC000C030C030C030C039E07000000000000BF
:10550C00000000000000000000000000000000008F
:10551C0000000000F00098010C03060606060606C3
:10552C00060606060C030C03F00000000000000049
:10553C00000000000000000000000000000000005F
:10554C0000000000EE011C030C060C060C060C06F9
:10555C000C060C060C031C03EC010C000C003E00AA
:10556C00000000000000000000000000000000002F
:10557C000000000078028C030C03060306030603EC
:10558C000603060304038C03780300030003C0071F
:10559C0000000000000000000000000000000000FF
:1055AC00000000009F07580638001800180018006B
:1055BC001800180018001800FF0000000000000080
:1055CC0000000000000000000000000000000000CF
:1055DC0000000000F00718060C040C003800F00165
:1055EC008003040604060C03FC010000000000000C
:1055FC00000000000000000000000000200020005F
:10560C0030003000FE01300030003000300030003F
:10561C003000300030023002E001000000000000D9
:10562C00000000000000000000000000000000006E
:10563C00000008028E030C030C030C030C030C0378
:10564C000C030C030C039C07780100000000000005
:10565C00000000000000000000000000000000003E
:10566C00000000003E0F1C06180218023001300129
:10567C003001E000E000E00040000000000000000D
:10568C00000000000000000000000000000000000E
:10569C0000000000EF0DC604C604E604EC04AC03E5
:1056AC009C039C039C0308010801000000000000FF
:1056BC0000000000000000000000000000000000DE
:1056CC0000000000BE0718019801B00070006000D7
:1056DC00E000D00098018803DE0700000000000005
:1056EC0000000000000000000000000000000000AE
:1056FC0000000000BE071C0118011801B000B0002A
:10570C00B0006000600040002000200014001C006D
:10571C00000000000000000000000000000000007D
:10572C0000000000FC038401C401C000E000600024
:10573C007000300438041806FC0300000000000060
:10574C0000000000000380018000800080008000C9
:10575C00800080008000C0002000C000800080001D
:10576C008000800080008000800080010003000029
:10577C00400040004000400040004000400040001D
:10578C00400040004000400040004000400040000D
:10579C0040004000400040004000400040004000FD
:1057AC00000000000C001800100010001000100089
:1057BC0010001000100030004000300010001000ED
:1057CC001000100010001000100018000C00000059
:1057DC0000001C00240042088204000700000000A6
:1057EC0000000000000000000000000000000000AD
:1057FC00000000000000000000000000000000009D
:10580C00000000000000000000000000000000008C
:10581C00000000000000000000000000000000007C
:10582C00000000000000000000000000000000006C
:10583C00000000000000000000000000000000005C
:10584C0000000000000000000000C001C001C00109
:10585C00C001C001C001C001800080008000800038
:10586C00800080008000000000000000000080012B
:10587C00C003C00380010000000000000000000015
:10588C00000000000000E01CE01CF01E700E380749
:10589C001803080184000000000000000000000054
:1058AC0000000000000000000000000000000000EC
:1058BC0000000000000000000000000000000000DC
:1058CC00000000000000000000000000201020106C
:1058DC00201020102010FE7FFE7F100810081008EA
:1058EC001008100810081008FE7FFE7F080408043A
:1058FC000804080408040000000000000000000078
:10590C00000000000000000000010001C007601949
:10591C00103118311839183938017001E001C00301
:10592C008007000F001D003900311C311C310C3177
:10593C000C11180DE007000100010001000000002F
:10594C000000000000000000000000001C103618D1
:10595C006308630C63046304630263026301361D12
:10596C009C378022806340634063206320633063F4
:10597C0010221836081C0000000000000000000077
:10598C00000000000000000000000000F000980182
:10599C008C018C018C018C018C00CC007800183EA1
:1059AC001C083608320863046304C304C30383432E
:1059BC0006438E26781C000000000000000000004A
:1059CC000000000000001C003C003C0030003000D7
:1059DC0010000C0006000000000000000000000099
:1059EC0000000000000000000000000000000000AB
:1059FC00000000000000000000000000000000009B
:105A0C000000000000000040002000100008000C06
:105A1C0000040006000300030003800180018001E4
:105A2C0080018001800180018001000300030003DC
:105A3C0000060006000C00080010002000400000CA
:105A4C0000000000000002000400080010003000FC
:105A5C0020006000C000C000C000800180018001F7
:105A6C0080018001800180018001C000C000C00065
:105A7C00600060003000100008000400020000000C
:105A8C00000000000000000000000000000000000A
:105A9C0000018003800300011C713C79783DC00734
:105AAC000001C007783D3C791C7100018003800324
:105ABC008001000000000000000000000000000059
:105ACC0000000000000000000000000000000000CA
